:1000000012C019C018C017C016C015C014C013C044
:1000100012C011C010C00FC00EC00DC00CC00BC06C
:100020000AC009C008C011241FBECFE5D4E0DEBF5E
:10003000CDBF1DD020C1E4CF90BD89B988E18AB978
:100040008EE880BD08955D9BFECF8CB908955F9BBF
:10005000FECF8CB10895C09A88E893E128EC30E097
:10006000F9013197F1F70197D9F7C09808955F9298
:100070006F927F928F929F92AF92BF92CF92DF92B8
:10008000EF92FF920F931F93DF93CF93CDB7DEB71D
:1000900066970FB6F894DEBF0FBECDBF10BC83E3EA
:1000A00089B988E18AB98EE880BDB89AFE01319697
:1000B0008AE0DF011D928A95E9F768ECA62EB12C43
:1000C0005BE0652E712C6C0E7D1E44E1842E912C1C
:1000D0008C0E9D1E6F013AE0532E43D08CEC75D0F0
:1000E00084E473D080E197E2F5013197F1F701974D
:1000F000D9F737D08CEC69D08EEB67D0830175D0FF
:10010000F80181938F01E815F905C9F7FC84EE2405
:100110008B859701280F311DC90124E0959587959E
:100120002A95E1F7B6014AE050E062D0D6010D9081
:100130000020E9F7F601119705C080815D9BFECF95
:100140008CB93196EA17FB07C1F785DF5D9BFECFBF
:100150005CB888E893E1F5013197F1F70197D9F799
:10016000BCCF97988F9A80EC93E00197F1F78F9826
:100170008AEA8A95F1F795E009C0879B02C080E082
:100180000895892F8A95F1F72F5F3F4F2931310567
:10019000A4F388EE93E00197F1F780B3881F8827D6
:1001A000881F08958F9A95E09A95F1F781118F989D
:1001B00080E28A95F1F780B395E79A95F1F78F98E9
:1001C0009AE19A95F1F7807808950F931F93182F6D
:1001D00008E0812F8170E6DF1695811110680150CB
:1001E000C1F7812F1F910F9108958FEFEEDF0895D2
:1001F000FB019F01E8944230BCF04532ACF44A3038
:1002000029F497FB1EF4909581959F4F642F7727D3
:100210001ED0805D8A330CF0895D8193CB010097FD
:10022000A9F716F45DE251931082C90100C0DC0108
:10023000FC01672F71917723E1F7329704C07C911D
:100240006D9370836291AE17BF07C8F30895AA1B20
:10025000BB1B51E107C0AA1FBB1FA617B70710F0B1
:10026000A61BB70B881F991F5A95A9F780959095E3
:0A027000BC01CD010895F894FFCF02
:00000001FF
